{
  "_format": "hh-sol-artifact-1",
  "contractName": "MarcadoNFT",
  "sourceName": "contracts/MarcadoNFT.sol",
  "abi": [
    {
      "inputs": [],
      "stateMutability": "nonpayable",
      "type": "constructor"
    },
    {
      "inputs": [],
      "name": "ERC721EnumerableForbiddenBatchMint",
      "type": "error"
    },
    {
      "inputs": [
        {
          "internalType": "address",
          "name": "sender",
          "type": "address"
        },
        {
          "internalType": "uint256",
          "name": "tokenId",
          "type": "uint256"
        },
        {
          "internalType": "address",
          "name": "owner",
          "type": "address"
        }
      ],
      "name": "ERC721IncorrectOwner",
      "type": "error"
    },
    {
      "inputs": [
        {
          "internalType": "address",
          "name": "operator",
          "type": "address"
        },
        {
          "internalType": "uint256",
          "name": "tokenId",
          "type": "uint256"
        }
      ],
      "name": "ERC721InsufficientApproval",
      "type": "error"
    },
    {
      "inputs": [
        {
          "internalType": "address",
          "name": "approver",
          "type": "address"
        }
      ],
      "name": "ERC721InvalidApprover",
      "type": "error"
    },
    {
      "inputs": [
        {
          "internalType": "address",
          "name": "operator",
          "type": "address"
        }
      ],
      "name": "ERC721InvalidOperator",
      "type": "error"
    },
    {
      "inputs": [
        {
          "internalType": "address",
          "name": "owner",
          "type": "address"
        }
      ],
      "name": "ERC721InvalidOwner",
      "type": "error"
    },
    {
      "inputs": [
        {
          "internalType": "address",
          "name": "receiver",
          "type": "address"
        }
      ],
      "name": "ERC721InvalidReceiver",
      "type": "error"
    },
    {
      "inputs": [
        {
          "internalType": "address",
          "name": "sender",
          "type": "address"
        }
      ],
      "name": "ERC721InvalidSender",
      "type": "error"
    },
    {
      "inputs": [
        {
          "internalType": "uint256",
          "name": "tokenId",
          "type": "uint256"
        }
      ],
      "name": "ERC721NonexistentToken",
      "type": "error"
    },
    {
      "inputs": [
        {
          "internalType": "address",
          "name": "owner",
          "type": "address"
        },
        {
          "internalType": "uint256",
          "name": "index",
          "type": "uint256"
        }
      ],
      "name": "ERC721OutOfBoundsIndex",
      "type": "error"
    },
    {
      "inputs": [
        {
          "internalType": "address",
          "name": "owner",
          "type": "address"
        }
      ],
      "name": "OwnableInvalidOwner",
      "type": "error"
    },
    {
      "inputs": [
        {
          "internalType": "address",
          "name": "account",
          "type": "address"
        }
      ],
      "name": "OwnableUnauthorizedAccount",
      "type": "error"
    },
    {
      "anonymous": false,
      "inputs": [
        {
          "indexed": true,
          "internalType": "address",
          "name": "owner",
          "type": "address"
        },
        {
          "indexed": true,
          "internalType": "address",
          "name": "approved",
          "type": "address"
        },
        {
          "indexed": true,
          "internalType": "uint256",
          "name": "tokenId",
          "type": "uint256"
        }
      ],
      "name": "Approval",
      "type": "event"
    },
    {
      "anonymous": false,
      "inputs": [
        {
          "indexed": true,
          "internalType": "address",
          "name": "owner",
          "type": "address"
        },
        {
          "indexed": true,
          "internalType": "address",
          "name": "operator",
          "type": "address"
        },
        {
          "indexed": false,
          "internalType": "bool",
          "name": "approved",
          "type": "bool"
        }
      ],
      "name": "ApprovalForAll",
      "type": "event"
    },
    {
      "anonymous": false,
      "inputs": [
        {
          "indexed": true,
          "internalType": "address",
          "name": "previousOwner",
          "type": "address"
        },
        {
          "indexed": true,
          "internalType": "address",
          "name": "newOwner",
          "type": "address"
        }
      ],
      "name": "OwnershipTransferred",
      "type": "event"
    },
    {
      "anonymous": false,
      "inputs": [
        {
          "indexed": false,
          "internalType": "uint256",
          "name": "id",
          "type": "uint256"
        },
        {
          "indexed": true,
          "internalType": "address",
          "name": "owner",
          "type": "address"
        },
        {
          "indexed": false,
          "internalType": "uint256",
          "name": "cost",
          "type": "uint256"
        },
        {
          "indexed": false,
          "internalType": "string",
          "name": "metadataURI",
          "type": "string"
        },
        {
          "indexed": false,
          "internalType": "uint256",
          "name": "timestamp",
          "type": "uint256"
        }
      ],
      "name": "Sale",
      "type": "event"
    },
    {
      "anonymous": false,
      "inputs": [
        {
          "indexed": true,
          "internalType": "address",
          "name": "from",
          "type": "address"
        },
        {
          "indexed": true,
          "internalType": "address",
          "name": "to",
          "type": "address"
        },
        {
          "indexed": true,
          "internalType": "uint256",
          "name": "tokenId",
          "type": "uint256"
        }
      ],
      "name": "Transfer",
      "type": "event"
    },
    {
      "inputs": [
        {
          "internalType": "address",
          "name": "to",
          "type": "address"
        },
        {
          "internalType": "uint256",
          "name": "tokenId",
          "type": "uint256"
        }
      ],
      "name": "approve",
      "outputs": [],
      "stateMutability": "nonpayable",
      "type": "function"
    },
    {
      "inputs": [
        {
          "internalType": "address",
          "name": "owner",
          "type": "address"
        }
      ],
      "name": "balanceOf",
      "outputs": [
        {
          "internalType": "uint256",
          "name": "",
          "type": "uint256"
        }
      ],
      "stateMutability": "view",
      "type": "function"
    },
    {
      "inputs": [
        {
          "internalType": "uint256",
          "name": "id",
          "type": "uint256"
        },
        {
          "internalType": "uint256",
          "name": "newPrice",
          "type": "uint256"
        }
      ],
      "name": "changePrice",
      "outputs": [
        {
          "internalType": "bool",
          "name": "",
          "type": "bool"
        }
      ],
      "stateMutability": "nonpayable",
      "type": "function"
    },
    {
      "inputs": [],
      "name": "cost",
      "outputs": [
        {
          "internalType": "uint256",
          "name": "",
          "type": "uint256"
        }
      ],
      "stateMutability": "view",
      "type": "function"
    },
    {
      "inputs": [],
      "name": "getAllNFTs",
      "outputs": [
        {
          "components": [
            {
              "internalType": "uint256",
              "name": "id",
              "type": "uint256"
            },
            {
              "internalType": "address",
              "name": "owner",
              "type": "address"
            },
            {
              "internalType": "uint256",
              "name": "cost",
              "type": "uint256"
            },
            {
              "internalType": "string",
              "name": "title",
              "type": "string"
            },
            {
              "internalType": "string",
              "name": "description",
              "type": "string"
            },
            {
              "internalType": "string",
              "name": "metadataURI",
              "type": "string"
            },
            {
              "internalType": "uint256",
              "name": "timestamp",
              "type": "uint256"
            }
          ],
          "internalType": "struct MarcadoNFT.TransactionStruct[]",
          "name": "",
          "type": "tuple[]"
        }
      ],
      "stateMutability": "view",
      "type": "function"
    },
    {
      "inputs": [],
      "name": "getAllTransactions",
      "outputs": [
        {
          "components": [
            {
              "internalType": "uint256",
              "name": "id",
              "type": "uint256"
            },
            {
              "internalType": "address",
              "name": "owner",
              "type": "address"
            },
            {
              "internalType": "uint256",
              "name": "cost",
              "type": "uint256"
            },
            {
              "internalType": "string",
              "name": "title",
              "type": "string"
            },
            {
              "internalType": "string",
              "name": "description",
              "type": "string"
            },
            {
              "internalType": "string",
              "name": "metadataURI",
              "type": "string"
            },
            {
              "internalType": "uint256",
              "name": "timestamp",
              "type": "uint256"
            }
          ],
          "internalType": "struct MarcadoNFT.TransactionStruct[]",
          "name": "",
          "type": "tuple[]"
        }
      ],
      "stateMutability": "view",
      "type": "function"
    },
    {
      "inputs": [
        {
          "internalType": "uint256",
          "name": "tokenId",
          "type": "uint256"
        }
      ],
      "name": "getApproved",
      "outputs": [
        {
          "internalType": "address",
          "name": "",
          "type": "address"
        }
      ],
      "stateMutability": "view",
      "type": "function"
    },
    {
      "inputs": [],
      "name": "getMyNFTs",
      "outputs": [
        {
          "components": [
            {
              "internalType": "uint256",
              "name": "id",
              "type": "uint256"
            },
            {
              "internalType": "address",
              "name": "owner",
              "type": "address"
            },
            {
              "internalType": "uint256",
              "name": "cost",
              "type": "uint256"
            },
            {
              "internalType": "string",
              "name": "title",
              "type": "string"
            },
            {
              "internalType": "string",
              "name": "description",
              "type": "string"
            },
            {
              "internalType": "string",
              "name": "metadataURI",
              "type": "string"
            },
            {
              "internalType": "uint256",
              "name": "timestamp",
              "type": "uint256"
            }
          ],
          "internalType": "struct MarcadoNFT.TransactionStruct[]",
          "name": "",
          "type": "tuple[]"
        }
      ],
      "stateMutability": "view",
      "type": "function"
    },
    {
      "inputs": [
        {
          "internalType": "uint256",
          "name": "id",
          "type": "uint256"
        }
      ],
      "name": "getNFT",
      "outputs": [
        {
          "components": [
            {
              "internalType": "uint256",
              "name": "id",
              "type": "uint256"
            },
            {
              "internalType": "address",
              "name": "owner",
              "type": "address"
            },
            {
              "internalType": "uint256",
              "name": "cost",
              "type": "uint256"
            },
            {
              "internalType": "string",
              "name": "title",
              "type": "string"
            },
            {
              "internalType": "string",
              "name": "description",
              "type": "string"
            },
            {
              "internalType": "string",
              "name": "metadataURI",
              "type": "string"
            },
            {
              "internalType": "uint256",
              "name": "timestamp",
              "type": "uint256"
            }
          ],
          "internalType": "struct MarcadoNFT.TransactionStruct",
          "name": "",
          "type": "tuple"
        }
      ],
      "stateMutability": "view",
      "type": "function"
    },
    {
      "inputs": [
        {
          "internalType": "uint256",
          "name": "",
          "type": "uint256"
        }
      ],
      "name": "holderOf",
      "outputs": [
        {
          "internalType": "address",
          "name": "",
          "type": "address"
        }
      ],
      "stateMutability": "view",
      "type": "function"
    },
    {
      "inputs": [
        {
          "internalType": "address",
          "name": "owner",
          "type": "address"
        },
        {
          "internalType": "address",
          "name": "operator",
          "type": "address"
        }
      ],
      "name": "isApprovedForAll",
      "outputs": [
        {
          "internalType": "bool",
          "name": "",
          "type": "bool"
        }
      ],
      "stateMutability": "view",
      "type": "function"
    },
    {
      "inputs": [],
      "name": "name",
      "outputs": [
        {
          "internalType": "string",
          "name": "",
          "type": "string"
        }
      ],
      "stateMutability": "view",
      "type": "function"
    },
    {
      "inputs": [],
      "name": "owner",
      "outputs": [
        {
          "internalType": "address",
          "name": "",
          "type": "address"
        }
      ],
      "stateMutability": "view",
      "type": "function"
    },
    {
      "inputs": [
        {
          "internalType": "uint256",
          "name": "tokenId",
          "type": "uint256"
        }
      ],
      "name": "ownerOf",
      "outputs": [
        {
          "internalType": "address",
          "name": "",
          "type": "address"
        }
      ],
      "stateMutability": "view",
      "type": "function"
    },
    {
      "inputs": [
        {
          "internalType": "uint256",
          "name": "id",
          "type": "uint256"
        }
      ],
      "name": "payToBuy",
      "outputs": [],
      "stateMutability": "payable",
      "type": "function"
    },
    {
      "inputs": [
        {
          "internalType": "string",
          "name": "title",
          "type": "string"
        },
        {
          "internalType": "string",
          "name": "description",
          "type": "string"
        },
        {
          "internalType": "string",
          "name": "metadataURI",
          "type": "string"
        },
        {
          "internalType": "uint256",
          "name": "salesPrice",
          "type": "uint256"
        }
      ],
      "name": "payToMint",
      "outputs": [],
      "stateMutability": "payable",
      "type": "function"
    },
    {
      "inputs": [],
      "name": "renounceOwnership",
      "outputs": [],
      "stateMutability": "nonpayable",
      "type": "function"
    },
    {
      "inputs": [
        {
          "internalType": "address",
          "name": "from",
          "type": "address"
        },
        {
          "internalType": "address",
          "name": "to",
          "type": "address"
        },
        {
          "internalType": "uint256",
          "name": "tokenId",
          "type": "uint256"
        }
      ],
      "name": "safeTransferFrom",
      "outputs": [],
      "stateMutability": "nonpayable",
      "type": "function"
    },
    {
      "inputs": [
        {
          "internalType": "address",
          "name": "from",
          "type": "address"
        },
        {
          "internalType": "address",
          "name": "to",
          "type": "address"
        },
        {
          "internalType": "uint256",
          "name": "tokenId",
          "type": "uint256"
        },
        {
          "internalType": "bytes",
          "name": "data",
          "type": "bytes"
        }
      ],
      "name": "safeTransferFrom",
      "outputs": [],
      "stateMutability": "nonpayable",
      "type": "function"
    },
    {
      "inputs": [
        {
          "internalType": "address",
          "name": "operator",
          "type": "address"
        },
        {
          "internalType": "bool",
          "name": "approved",
          "type": "bool"
        }
      ],
      "name": "setApprovalForAll",
      "outputs": [],
      "stateMutability": "nonpayable",
      "type": "function"
    },
    {
      "inputs": [],
      "name": "supply",
      "outputs": [
        {
          "internalType": "uint256",
          "name": "",
          "type": "uint256"
        }
      ],
      "stateMutability": "view",
      "type": "function"
    },
    {
      "inputs": [
        {
          "internalType": "bytes4",
          "name": "interfaceId",
          "type": "bytes4"
        }
      ],
      "name": "supportsInterface",
      "outputs": [
        {
          "internalType": "bool",
          "name": "",
          "type": "bool"
        }
      ],
      "stateMutability": "view",
      "type": "function"
    },
    {
      "inputs": [],
      "name": "symbol",
      "outputs": [
        {
          "internalType": "string",
          "name": "",
          "type": "string"
        }
      ],
      "stateMutability": "view",
      "type": "function"
    },
    {
      "inputs": [
        {
          "internalType": "uint256",
          "name": "index",
          "type": "uint256"
        }
      ],
      "name": "tokenByIndex",
      "outputs": [
        {
          "internalType": "uint256",
          "name": "",
          "type": "uint256"
        }
      ],
      "stateMutability": "view",
      "type": "function"
    },
    {
      "inputs": [
        {
          "internalType": "address",
          "name": "owner",
          "type": "address"
        },
        {
          "internalType": "uint256",
          "name": "index",
          "type": "uint256"
        }
      ],
      "name": "tokenOfOwnerByIndex",
      "outputs": [
        {
          "internalType": "uint256",
          "name": "",
          "type": "uint256"
        }
      ],
      "stateMutability": "view",
      "type": "function"
    },
    {
      "inputs": [
        {
          "internalType": "uint256",
          "name": "tokenId",
          "type": "uint256"
        }
      ],
      "name": "tokenURI",
      "outputs": [
        {
          "internalType": "string",
          "name": "",
          "type": "string"
        }
      ],
      "stateMutability": "view",
      "type": "function"
    },
    {
      "inputs": [],
      "name": "totalSupply",
      "outputs": [
        {
          "internalType": "uint256",
          "name": "",
          "type": "uint256"
        }
      ],
      "stateMutability": "view",
      "type": "function"
    },
    {
      "inputs": [],
      "name": "totalTx",
      "outputs": [
        {
          "internalType": "uint256",
          "name": "",
          "type": "uint256"
        }
      ],
      "stateMutability": "view",
      "type": "function"
    },
    {
      "inputs": [
        {
          "internalType": "address",
          "name": "from",
          "type": "address"
        },
        {
          "internalType": "address",
          "name": "to",
          "type": "address"
        },
        {
          "internalType": "uint256",
          "name": "tokenId",
          "type": "uint256"
        }
      ],
      "name": "transferFrom",
      "outputs": [],
      "stateMutability": "nonpayable",
      "type": "function"
    },
    {
      "inputs": [
        {
          "internalType": "address",
          "name": "newOwner",
          "type": "address"
        }
      ],
      "name": "transferOwnership",
      "outputs": [],
      "stateMutability": "nonpayable",
      "type": "function"
    }
  ],
  "bytecode": "0x60806040526000600e556000600f55662386f26fc100006010553480156200002657600080fd5b50336040518060400160405280600f81526020016e43656c6f204166726963612044414f60881b81525060405180604001604052806005815260200164434144414f60d81b81525081600090816200007f9190620001c9565b5060016200008e8282620001c9565b5050506001600160a01b038116620000c057604051631e4fbdf760e01b81526000600482015260240160405180910390fd5b620000cb81620000d2565b5062000295565b600a80546001600160a01b038381166001600160a01b0319831681179093556040519116919082907f8be0079c531659141344cd1fd0a4f28419497f9722a3daafe3b4186f6b6457e090600090a35050565b634e487b7160e01b600052604160045260246000fd5b600181811c908216806200014f57607f821691505b6020821081036200017057634e487b7160e01b600052602260045260246000fd5b50919050565b601f821115620001c457600081815260208120601f850160051c810160208610156200019f5750805b601f850160051c820191505b81811015620001c057828155600101620001ab565b5050505b505050565b81516001600160401b03811115620001e557620001e562000124565b620001fd81620001f684546200013a565b8462000176565b602080601f8311600181146200023557600084156200021c5750858301515b600019600386901b1c1916600185901b178555620001c0565b600085815260208120601f198616915b82811015620002665788860151825594840194600190910190840162000245565b5085821015620002855787850151600019600388901b60f8161c191681555b5050505050600190811b01905550565b6130fa80620002a56000396000f3fe6080604052600436106101cd5760003560e01c806370a08231116100f7578063a22cb46511610095578063dbacc23711610064578063dbacc237146104fa578063e0391b0914610530578063e985e9c514610545578063f2fde38b1461058e57600080fd5b8063a22cb4651461047a578063b3de019c1461049a578063b88d4fde146104ba578063c87b56dd146104da57600080fd5b8063799c0c1e116100d1578063799c0c1e146104215780638da5cb5b1461043457806395d89b41146104525780639ba4b0171461046757600080fd5b806370a08231146103d6578063715018a6146103f65780637220cf391461040b57600080fd5b806323b872dd1161016f5780634f6ccce71161013e5780634f6ccce714610354578063576f7ea714610374578063629cb2e4146103a15780636352211e146103b657600080fd5b806323b872dd146102d257806327506f53146102f25780632f745c591461031457806342842e0e1461033457600080fd5b8063081812fc116101ab578063081812fc1461024d578063095ea7b31461028557806313faede6146102a757806318160ddd146102bd57600080fd5b806301ffc9a7146101d2578063047fc9aa1461020757806306fdde031461022b575b600080fd5b3480156101de57600080fd5b506101f26101ed366004612934565b6105ae565b60405190151581526020015b60405180910390f35b34801561021357600080fd5b5061021d600e5481565b6040519081526020016101fe565b34801561023757600080fd5b506102406105d9565b6040516101fe91906129a1565b34801561025957600080fd5b5061026d6102683660046129b4565b61066b565b6040516001600160a01b0390911681526020016101fe565b34801561029157600080fd5b506102a56102a03660046129e9565b610694565b005b3480156102b357600080fd5b5061021d60105481565b3480156102c957600080fd5b5060085461021d565b3480156102de57600080fd5b506102a56102ed366004612a13565b6106a3565b3480156102fe57600080fd5b50610307610733565b6040516101fe9190612ad5565b34801561032057600080fd5b5061021d61032f3660046129e9565b61097d565b34801561034057600080fd5b506102a561034f366004612a13565b6109e2565b34801561036057600080fd5b5061021d61036f3660046129b4565b610a02565b34801561038057600080fd5b5061039461038f3660046129b4565b610a5b565b6040516101fe9190612b37565b3480156103ad57600080fd5b50610307610ce4565b3480156103c257600080fd5b5061026d6103d13660046129b4565b61107f565b3480156103e257600080fd5b5061021d6103f1366004612b4a565b61108a565b34801561040257600080fd5b506102a56110d2565b34801561041757600080fd5b5061021d600f5481565b6102a561042f366004612c11565b6110e6565b34801561044057600080fd5b50600a546001600160a01b031661026d565b34801561045e57600080fd5b506102406114ed565b6102a56104753660046129b4565b6114fc565b34801561048657600080fd5b506102a5610495366004612ca1565b611a35565b3480156104a657600080fd5b506101f26104b5366004612cdd565b611a40565b3480156104c657600080fd5b506102a56104d5366004612cff565b611b54565b3480156104e657600080fd5b506102406104f53660046129b4565b611b6b565b34801561050657600080fd5b5061026d6105153660046129b4565b600c602052600090815260409020546001600160a01b031681565b34801561053c57600080fd5b50610307611be0565b34801561055157600080fd5b506101f2610560366004612d7b565b6001600160a01b03918216600090815260056020908152604080832093909416825291909152205460ff1690565b34801561059a57600080fd5b506102a56105a9366004612b4a565b611e21565b60006001600160e01b0319821663780e9d6360e01b14806105d357506105d382611e5f565b92915050565b6060600080546105e890612dae565b80601f016020809104026020016040519081016040528092919081815260200182805461061490612dae565b80156106615780601f1061063657610100808354040283529160200191610661565b820191906000526020600020905b81548152906001019060200180831161064457829003601f168201915b5050505050905090565b600061067682611eaf565b506000828152600460205260409020546001600160a01b03166105d3565b61069f828233611ee8565b5050565b6001600160a01b0382166106d257604051633250574960e11b8152600060048201526024015b60405180910390fd5b60006106df838333611ef5565b9050836001600160a01b0316816001600160a01b03161461072d576040516364283d7b60e01b81526001600160a01b03808616600483015260248201849052821660448201526064016106c9565b50505050565b60606011805480602002602001604051908101604052809291908181526020016000905b828210156109745760008481526020908190206040805160e081018252600786029092018054835260018101546001600160a01b0316938301939093526002830154908201526003820180549192916060840191906107b590612dae565b80601f01602080910402602001604051908101604052809291908181526020018280546107e190612dae565b801561082e5780601f106108035761010080835404028352916020019161082e565b820191906000526020600020905b81548152906001019060200180831161081157829003601f168201915b5050505050815260200160048201805461084790612dae565b80601f016020809104026020016040519081016040528092919081815260200182805461087390612dae565b80156108c05780601f10610895576101008083540402835291602001916108c0565b820191906000526020600020905b8154815290600101906020018083116108a357829003601f168201915b505050505081526020016005820180546108d990612dae565b80601f016020809104026020016040519081016040528092919081815260200182805461090590612dae565b80156109525780601f1061092757610100808354040283529160200191610952565b820191906000526020600020905b81548152906001019060200180831161093557829003601f168201915b5050505050815260200160068201548152505081526020019060010190610757565b50505050905090565b60006109888361108a565b82106109b95760405163295f44f760e21b81526001600160a01b0384166004820152602481018390526044016106c9565b506001600160a01b03919091166000908152600660209081526040808320938352929052205490565b6109fd83838360405180602001604052806000815250611b54565b505050565b6000610a0d60085490565b8210610a365760405163295f44f760e21b815260006004820152602481018390526044016106c9565b60088281548110610a4957610a49612de8565b90600052602060002001549050919050565b610aa46040518060e001604052806000815260200160006001600160a01b0316815260200160008152602001606081526020016060815260200160608152602001600081525090565b6012610ab1600184612e14565b81548110610ac157610ac1612de8565b90600052602060002090600702016040518060e0016040529081600082015481526020016001820160009054906101000a90046001600160a01b03166001600160a01b03166001600160a01b0316815260200160028201548152602001600382018054610b2d90612dae565b80601f0160208091040260200160405190810160405280929190818152602001828054610b5990612dae565b8015610ba65780601f10610b7b57610100808354040283529160200191610ba6565b820191906000526020600020905b815481529060010190602001808311610b8957829003601f168201915b50505050508152602001600482018054610bbf90612dae565b80601f0160208091040260200160405190810160405280929190818152602001828054610beb90612dae565b8015610c385780601f10610c0d57610100808354040283529160200191610c38565b820191906000526020600020905b815481529060010190602001808311610c1b57829003601f168201915b50505050508152602001600582018054610c5190612dae565b80601f0160208091040260200160405190810160405280929190818152602001828054610c7d90612dae565b8015610cca5780601f10610c9f57610100808354040283529160200191610cca565b820191906000526020600020905b815481529060010190602001808311610cad57829003601f168201915b505050505081526020016006820154815250509050919050565b606060008080805b601254811015610d485733600d6000610d06846001612e27565b81526020810191909152604001600020600101546001600160a01b031603610d3657610d33600185612e27565b93505b80610d4081612e3a565b915050610cec565b5060008367ffffffffffffffff811115610d6457610d64612b65565b604051908082528060200260200182016040528015610dde57816020015b610dcb6040518060e001604052806000815260200160006001600160a01b0316815260200160008152602001606081526020016060815260200160608152602001600081525090565b815260200190600190039081610d825790505b50905060005b6012548110156110765733600d6000610dfe846001612e27565b81526020810191909152604001600020600101546001600160a01b03160361106457610e2b816001612e27565b6000818152600d6020908152604091829020825160e0810184528154815260018201546001600160a01b031692810192909252600281015492820192909252600382018054939650919290918391606084019190610e8890612dae565b80601f0160208091040260200160405190810160405280929190818152602001828054610eb490612dae565b8015610f015780601f10610ed657610100808354040283529160200191610f01565b820191906000526020600020905b815481529060010190602001808311610ee457829003601f168201915b50505050508152602001600482018054610f1a90612dae565b80601f0160208091040260200160405190810160405280929190818152602001828054610f4690612dae565b8015610f935780601f10610f6857610100808354040283529160200191610f93565b820191906000526020600020905b815481529060010190602001808311610f7657829003601f168201915b50505050508152602001600582018054610fac90612dae565b80601f0160208091040260200160405190810160405280929190818152602001828054610fd890612dae565b80156110255780601f10610ffa57610100808354040283529160200191611025565b820191906000526020600020905b81548152906001019060200180831161100857829003601f168201915b5050505050815260200160068201548152505083868151811061104a5761104a612de8565b6020908102919091010152611060600186612e27565b9450505b8061106e81612e3a565b915050610de4565b50949350505050565b60006105d382611eaf565b60006001600160a01b0382166110b6576040516322718ad960e21b8152600060048201526024016106c9565b506001600160a01b031660009081526003602052604090205490565b6110da611fca565b6110e46000611ff7565b565b6010543410156111385760405162461bcd60e51b815260206004820152601a60248201527f457468657220746f6f206c6f7720666f72206d696e74696e672100000000000060448201526064016106c9565b600b826040516111489190612e53565b9081526040519081900360200190205460ff16156111a85760405162461bcd60e51b815260206004820152601b60248201527f54686973204e465420697320616c7265616479206d696e74656421000000000060448201526064016106c9565b600a546001600160a01b031633036112025760405162461bcd60e51b815260206004820152601260248201527f53616c6573206e6f7420616c6c6f77656421000000000000000000000000000060448201526064016106c9565b61121d611217600a546001600160a01b031690565b34612049565b600e805490600061122d83612e3a565b90915550506040805160e081018252600e5481523360208201908152918101838152606082018781526080830187905260a083018690524260c08401526012805460018101825560009190915283517fbb8a6a4669ba250d26cd7a459eca9d215f8307e33aebe50379bc5a3617ec3444600790920291820190815594517fbb8a6a4669ba250d26cd7a459eca9d215f8307e33aebe50379bc5a3617ec3445820180546001600160a01b0319166001600160a01b0390921691909117905591517fbb8a6a4669ba250d26cd7a459eca9d215f8307e33aebe50379bc5a3617ec3446830155519192917fbb8a6a4669ba250d26cd7a459eca9d215f8307e33aebe50379bc5a3617ec3447909101906113439082612ebd565b50608082015160048201906113589082612ebd565b5060a0820151600582019061136d9082612ebd565b5060c091820151600691909101556040805160e081018252600e54808252336020808401918252838501878152606085018b8152608086018b905260a086018a905242978601979097526000938452600d909152939091208251815590516001820180546001600160a01b0319166001600160a01b0390921691909117905591516002830155915160038201906114049082612ebd565b50608082015160048201906114199082612ebd565b5060a0820151600582019061142e9082612ebd565b5060c08201518160060155905050336001600160a01b03167fb9508407a6eccb191d8da3286f4173697cf95604e9ea192fe5ab7c862b5221f6600e5434854260405161147d9493929190612f7d565b60405180910390a261149133600e546120a9565b6001600b836040516114a39190612e53565b9081526040805160209281900383019020805460ff191660ff9490941693909317909255600e546000908152600c909152208054336001600160a01b031990911617905550505050565b6060600180546105e890612dae565b6012611509600183612e14565b8154811061151957611519612de8565b90600052602060002090600702016002015434101561157a5760405162461bcd60e51b815260206004820152601b60248201527f457468657220746f6f206c6f7720666f7220707572636861736521000000000060448201526064016106c9565b6012611587600183612e14565b8154811061159757611597612de8565b60009182526020909120600160079092020101546001600160a01b031633036116025760405162461bcd60e51b815260206004820152601660248201527f4f7065726174696f6e204e6f7420416c6c6f776564210000000000000000000060448201526064016106c9565b6116456012611612600184612e14565b8154811061162257611622612de8565b60009182526020909120600160079092020101546001600160a01b031634612049565b600f805490600061165583612e3a565b919050555060116040518060e00160405280600f548152602001336001600160a01b0316815260200134815260200160126001856116939190612e14565b815481106116a3576116a3612de8565b906000526020600020906007020160030180546116bf90612dae565b80601f01602080910402602001604051908101604052809291908181526020018280546116eb90612dae565b80156117385780601f1061170d57610100808354040283529160200191611738565b820191906000526020600020905b81548152906001019060200180831161171b57829003601f168201915b50505091835250506020016012611750600186612e14565b8154811061176057611760612de8565b9060005260206000209060070201600401805461177c90612dae565b80601f01602080910402602001604051908101604052809291908181526020018280546117a890612dae565b80156117f55780601f106117ca576101008083540402835291602001916117f5565b820191906000526020600020905b8154815290600101906020018083116117d857829003601f168201915b5050509183525050602001601261180d600186612e14565b8154811061181d5761181d612de8565b9060005260206000209060070201600501805461183990612dae565b80601f016020809104026020016040519081016040528092919081815260200182805461186590612dae565b80156118b25780601f10611887576101008083540402835291602001916118b2565b820191906000526020600020905b81548152906001019060200180831161189557829003601f168201915b50505091835250504260209182015282546001808201855560009485529382902083516007909202019081559082015192810180546001600160a01b0319166001600160a01b039094169390931790925560408101516002830155606081015190919060038201906119249082612ebd565b50608082015160048201906119399082612ebd565b5060a0820151600582019061194e9082612ebd565b5060c09190910151600690910155600f5433907fb9508407a6eccb191d8da3286f4173697cf95604e9ea192fe5ab7c862b5221f690346012611991600187612e14565b815481106119a1576119a1612de8565b9060005260206000209060070201600501426040516119c39493929190612fad565b60405180910390a23360126119d9600184612e14565b815481106119e9576119e9612de8565b600091825260208083206001600790930201820180546001600160a01b03959095166001600160a01b0319958616179055600e548352600d905260409091200180549091163317905550565b61069f3383836120c3565b6000808211611a915760405162461bcd60e51b815260206004820152600e60248201527f457468657220746f6f206c6f772100000000000000000000000000000000000060448201526064016106c9565b6012611a9e600185612e14565b81548110611aae57611aae612de8565b60009182526020909120600790910201600101546001600160a01b03163314611b195760405162461bcd60e51b815260206004820152601660248201527f4f7065726174696f6e204e6f7420416c6c6f776564210000000000000000000060448201526064016106c9565b816012611b27600186612e14565b81548110611b3757611b37612de8565b600091825260209091206002600790920201015550600192915050565b611b5f8484846106a3565b61072d84848484612162565b6060611b7682611eaf565b506000611b8e60408051602081019091526000815290565b90506000815111611bae5760405180602001604052806000815250611bd9565b80611bb88461228b565b604051602001611bc992919061304f565b6040516020818303038152906040525b9392505050565b60606012805480602002602001604051908101604052809291908181526020016000905b828210156109745760008481526020908190206040805160e081018252600786029092018054835260018101546001600160a01b031693830193909352600283015490820152600382018054919291606084019190611c6290612dae565b80601f0160208091040260200160405190810160405280929190818152602001828054611c8e90612dae565b8015611cdb5780601f10611cb057610100808354040283529160200191611cdb565b820191906000526020600020905b815481529060010190602001808311611cbe57829003601f168201915b50505050508152602001600482018054611cf490612dae565b80601f0160208091040260200160405190810160405280929190818152602001828054611d2090612dae565b8015611d6d5780601f10611d4257610100808354040283529160200191611d6d565b820191906000526020600020905b815481529060010190602001808311611d5057829003601f168201915b50505050508152602001600582018054611d8690612dae565b80601f0160208091040260200160405190810160405280929190818152602001828054611db290612dae565b8015611dff5780601f10611dd457610100808354040283529160200191611dff565b820191906000526020600020905b815481529060010190602001808311611de257829003601f168201915b5050505050815260200160068201548152505081526020019060010190611c04565b611e29611fca565b6001600160a01b038116611e5357604051631e4fbdf760e01b8152600060048201526024016106c9565b611e5c81611ff7565b50565b60006001600160e01b031982166380ac58cd60e01b1480611e9057506001600160e01b03198216635b5e139f60e01b145b806105d357506301ffc9a760e01b6001600160e01b03198316146105d3565b6000818152600260205260408120546001600160a01b0316806105d357604051637e27328960e01b8152600481018490526024016106c9565b6109fd838383600161232b565b600080611f03858585612450565b90506001600160a01b038116611f6057611f5b84600880546000838152600960205260408120829055600182018355919091527ff3f7a9fe364faab93b216da50a3214154f22a0a2b415b23a84c8169e8b636ee30155565b611f83565b846001600160a01b0316816001600160a01b031614611f8357611f838185612549565b6001600160a01b038516611f9f57611f9a846125da565b611fc2565b846001600160a01b0316816001600160a01b031614611fc257611fc28585612689565b949350505050565b600a546001600160a01b031633146110e45760405163118cdaa760e01b81523360048201526024016106c9565b600a80546001600160a01b038381166001600160a01b0319831681179093556040519116919082907f8be0079c531659141344cd1fd0a4f28419497f9722a3daafe3b4186f6b6457e090600090a35050565b6000826001600160a01b03168260405160006040518083038185875af1925050503d8060008114612096576040519150601f19603f3d011682016040523d82523d6000602084013e61209b565b606091505b50509050806109fd57600080fd5b61069f8282604051806020016040528060008152506126d9565b6001600160a01b0382166120f557604051630b61174360e31b81526001600160a01b03831660048201526024016106c9565b6001600160a01b03838116600081815260056020908152604080832094871680845294825291829020805460ff191686151590811790915591519182527f17307eab39ab6107e8899845ad3d59bd9653f200f220920489ca2b5937696c31910160405180910390a3505050565b6001600160a01b0383163b1561072d57604051630a85bd0160e11b81526001600160a01b0384169063150b7a02906121a490339088908790879060040161307e565b6020604051808303816000875af19250505080156121df575060408051601f3d908101601f191682019092526121dc918101906130ba565b60015b612248573d80801561220d576040519150601f19603f3d011682016040523d82523d6000602084013e612212565b606091505b50805160000361224057604051633250574960e11b81526001600160a01b03851660048201526024016106c9565b805181602001fd5b6001600160e01b03198116630a85bd0160e11b1461228457604051633250574960e11b81526001600160a01b03851660048201526024016106c9565b5050505050565b60606000612298836126f0565b600101905060008167ffffffffffffffff8111156122b8576122b8612b65565b6040519080825280601f01601f1916602001820160405280156122e2576020820181803683370190505b5090508181016020015b600019017f3031323334353637383961626364656600000000000000000000000000000000600a86061a8153600a85049450846122ec57509392505050565b808061233f57506001600160a01b03821615155b1561242057600061234f84611eaf565b90506001600160a01b0383161580159061237b5750826001600160a01b0316816001600160a01b031614155b80156123ad57506001600160a01b0380821660009081526005602090815260408083209387168352929052205460ff16155b156123d65760405163a9fbf51f60e01b81526001600160a01b03841660048201526024016106c9565b811561241e5783856001600160a01b0316826001600160a01b03167f8c5be1e5ebec7d5bd14f71427d1e84f3dd0314c0f7b2291e5b200ac8c7c3b92560405160405180910390a45b505b5050600090815260046020526040902080546001600160a01b0319166001600160a01b0392909216919091179055565b6000828152600260205260408120546001600160a01b039081169083161561247d5761247d8184866127d2565b6001600160a01b038116156124bb5761249a60008560008061232b565b6001600160a01b038116600090815260036020526040902080546000190190555b6001600160a01b038516156124ea576001600160a01b0385166000908152600360205260409020805460010190555b60008481526002602052604080822080546001600160a01b0319166001600160a01b0389811691821790925591518793918516917fddf252ad1be2c89b69c2b068fc378daa952ba7f163c4a11628f55a4df523b3ef91a4949350505050565b60006125548361108a565b6000838152600760205260409020549091508082146125a7576001600160a01b03841660009081526006602090815260408083208584528252808320548484528184208190558352600790915290208190555b5060009182526007602090815260408084208490556001600160a01b039094168352600681528383209183525290812055565b6008546000906125ec90600190612e14565b6000838152600960205260408120546008805493945090928490811061261457612614612de8565b90600052602060002001549050806008838154811061263557612635612de8565b600091825260208083209091019290925582815260099091526040808220849055858252812055600880548061266d5761266d6130d7565b6001900381819060005260206000200160009055905550505050565b600060016126968461108a565b6126a09190612e14565b6001600160a01b039093166000908152600660209081526040808320868452825280832085905593825260079052919091209190915550565b6126e38383612836565b6109fd6000848484612162565b6000807a184f03e93ff9f4daa797ed6e38ed64bf6a1f0100000000000000008310612739577a184f03e93ff9f4daa797ed6e38ed64bf6a1f010000000000000000830492506040015b6d04ee2d6d415b85acef81000000008310612765576d04ee2d6d415b85acef8100000000830492506020015b662386f26fc10000831061278357662386f26fc10000830492506010015b6305f5e100831061279b576305f5e100830492506008015b61271083106127af57612710830492506004015b606483106127c1576064830492506002015b600a83106105d35760010192915050565b6127dd83838361289b565b6109fd576001600160a01b03831661280b57604051637e27328960e01b8152600481018290526024016106c9565b60405163177e802f60e01b81526001600160a01b0383166004820152602481018290526044016106c9565b6001600160a01b03821661286057604051633250574960e11b8152600060048201526024016106c9565b600061286e83836000611ef5565b90506001600160a01b038116156109fd576040516339e3563760e11b8152600060048201526024016106c9565b60006001600160a01b03831615801590611fc25750826001600160a01b0316846001600160a01b031614806128f557506001600160a01b0380851660009081526005602090815260408083209387168352929052205460ff165b80611fc25750506000908152600460205260409020546001600160a01b03908116911614919050565b6001600160e01b031981168114611e5c57600080fd5b60006020828403121561294657600080fd5b8135611bd98161291e565b60005b8381101561296c578181015183820152602001612954565b50506000910152565b6000815180845261298d816020860160208601612951565b601f01601f19169290920160200192915050565b602081526000611bd96020830184612975565b6000602082840312156129c657600080fd5b5035919050565b80356001600160a01b03811681146129e457600080fd5b919050565b600080604083850312156129fc57600080fd5b612a05836129cd565b946020939093013593505050565b600080600060608486031215612a2857600080fd5b612a31846129cd565b9250612a3f602085016129cd565b9150604084013590509250925092565b805182526001600160a01b036020820151166020830152604081015160408301526000606082015160e06060850152612a8b60e0850182612975565b905060808301518482036080860152612aa48282612975565b91505060a083015184820360a0860152612abe8282612975565b91505060c083015160c08501528091505092915050565b6000602080830181845280855180835260408601915060408160051b870101925083870160005b82811015612b2a57603f19888603018452612b18858351612a4f565b94509285019290850190600101612afc565b5092979650505050505050565b602081526000611bd96020830184612a4f565b600060208284031215612b5c57600080fd5b611bd9826129cd565b634e487b7160e01b600052604160045260246000fd5b600067ffffffffffffffff80841115612b9657612b96612b65565b604051601f8501601f19908116603f01168101908282118183101715612bbe57612bbe612b65565b81604052809350858152868686011115612bd757600080fd5b858560208301376000602087830101525050509392505050565b600082601f830112612c0257600080fd5b611bd983833560208501612b7b565b60008060008060808587031215612c2757600080fd5b843567ffffffffffffffff80821115612c3f57600080fd5b612c4b88838901612bf1565b95506020870135915080821115612c6157600080fd5b612c6d88838901612bf1565b94506040870135915080821115612c8357600080fd5b50612c9087828801612bf1565b949793965093946060013593505050565b60008060408385031215612cb457600080fd5b612cbd836129cd565b915060208301358015158114612cd257600080fd5b809150509250929050565b60008060408385031215612cf057600080fd5b50508035926020909101359150565b60008060008060808587031215612d1557600080fd5b612d1e856129cd565b9350612d2c602086016129cd565b925060408501359150606085013567ffffffffffffffff811115612d4f57600080fd5b8501601f81018713612d6057600080fd5b612d6f87823560208401612b7b565b91505092959194509250565b60008060408385031215612d8e57600080fd5b612d97836129cd565b9150612da5602084016129cd565b90509250929050565b600181811c90821680612dc257607f821691505b602082108103612de257634e487b7160e01b600052602260045260246000fd5b50919050565b634e487b7160e01b600052603260045260246000fd5b634e487b7160e01b600052601160045260246000fd5b818103818111156105d3576105d3612dfe565b808201808211156105d3576105d3612dfe565b600060018201612e4c57612e4c612dfe565b5060010190565b60008251612e65818460208701612951565b9190910192915050565b601f8211156109fd57600081815260208120601f850160051c81016020861015612e965750805b601f850160051c820191505b81811015612eb557828155600101612ea2565b505050505050565b815167ffffffffffffffff811115612ed757612ed7612b65565b612eeb81612ee58454612dae565b84612e6f565b602080601f831160018114612f205760008415612f085750858301515b600019600386901b1c1916600185901b178555612eb5565b600085815260208120601f198616915b82811015612f4f57888601518255948401946001909101908401612f30565b5085821015612f6d5787850151600019600388901b60f8161c191681555b5050505050600190811b01905550565b848152836020820152608060408201526000612f9c6080830185612975565b905082606083015295945050505050565b8481526000602085818401526080604084015260008554612fcd81612dae565b80608087015260a0600180841660008114612fef576001811461300957613037565b60ff1985168984015283151560051b890183019550613037565b8a6000528660002060005b8581101561302f5781548b8201860152908301908801613014565b8a0184019650505b50505050506060939093019390935250949350505050565b60008351613061818460208801612951565b835190830190613075818360208801612951565b01949350505050565b60006001600160a01b038087168352808616602084015250836040830152608060608301526130b06080830184612975565b9695505050505050565b6000602082840312156130cc57600080fd5b8151611bd98161291e565b634e487b7160e01b600052603160045260246000fdfea164736f6c6343000814000a",
  "linkReferences": {},
  "deployedLinkReferences": {}
}